{
  "contractName": "LendingProtocol",
  "abi": [
    {
      "inputs": [],
      "stateMutability": "nonpayable",
      "type": "constructor"
    },
    {
      "anonymous": false,
      "inputs": [
        {
          "indexed": false,
          "internalType": "uint256",
          "name": "winner",
          "type": "uint256"
        },
        {
          "indexed": false,
          "internalType": "uint256",
          "name": "amount",
          "type": "uint256"
        }
      ],
      "name": "AmountDeposited",
      "type": "event"
    },
    {
      "anonymous": false,
      "inputs": [
        {
          "indexed": false,
          "internalType": "address",
          "name": "winner",
          "type": "address"
        },
        {
          "indexed": false,
          "internalType": "uint256",
          "name": "amount",
          "type": "uint256"
        }
      ],
      "name": "AmountReceived",
      "type": "event"
    },
    {
      "inputs": [
        {
          "internalType": "address",
          "name": "",
          "type": "address"
        }
      ],
      "name": "amountLent",
      "outputs": [
        {
          "internalType": "uint256",
          "name": "",
          "type": "uint256"
        }
      ],
      "stateMutability": "view",
      "type": "function",
      "constant": true
    },
    {
      "inputs": [],
      "name": "balance",
      "outputs": [
        {
          "internalType": "uint256",
          "name": "",
          "type": "uint256"
        }
      ],
      "stateMutability": "view",
      "type": "function",
      "constant": true
    },
    {
      "inputs": [
        {
          "internalType": "address",
          "name": "",
          "type": "address"
        }
      ],
      "name": "borrows",
      "outputs": [
        {
          "internalType": "uint256",
          "name": "",
          "type": "uint256"
        }
      ],
      "stateMutability": "view",
      "type": "function",
      "constant": true
    },
    {
      "inputs": [
        {
          "internalType": "address",
          "name": "",
          "type": "address"
        }
      ],
      "name": "deposits",
      "outputs": [
        {
          "internalType": "uint256",
          "name": "",
          "type": "uint256"
        }
      ],
      "stateMutability": "view",
      "type": "function",
      "constant": true
    },
    {
      "inputs": [],
      "name": "token",
      "outputs": [
        {
          "internalType": "contract ERC20",
          "name": "",
          "type": "address"
        }
      ],
      "stateMutability": "view",
      "type": "function",
      "constant": true
    },
    {
      "inputs": [
        {
          "internalType": "address",
          "name": "add_",
          "type": "address"
        },
        {
          "internalType": "uint256",
          "name": "amount",
          "type": "uint256"
        }
      ],
      "name": "LoanMe",
      "outputs": [],
      "stateMutability": "payable",
      "type": "function",
      "payable": true
    },
    {
      "inputs": [],
      "name": "MyDeposits",
      "outputs": [
        {
          "internalType": "uint256",
          "name": "",
          "type": "uint256"
        }
      ],
      "stateMutability": "nonpayable",
      "type": "function"
    },
    {
      "inputs": [],
      "name": "MyBorrows",
      "outputs": [
        {
          "internalType": "uint256",
          "name": "",
          "type": "uint256"
        }
      ],
      "stateMutability": "nonpayable",
      "type": "function"
    },
    {
      "inputs": [],
      "name": "MyLent",
      "outputs": [
        {
          "internalType": "uint256",
          "name": "",
          "type": "uint256"
        }
      ],
      "stateMutability": "nonpayable",
      "type": "function"
    },
    {
      "inputs": [
        {
          "internalType": "address",
          "name": "tokentoborrow",
          "type": "address"
        },
        {
          "internalType": "uint256",
          "name": "amount",
          "type": "uint256"
        }
      ],
      "name": "AcceptTokensToLend",
      "outputs": [],
      "stateMutability": "nonpayable",
      "type": "function"
    },
    {
      "inputs": [
        {
          "internalType": "address",
          "name": "tokenToWithDraw",
          "type": "address"
        },
        {
          "internalType": "uint256",
          "name": "amount",
          "type": "uint256"
        }
      ],
      "name": "withDraw",
      "outputs": [],
      "stateMutability": "nonpayable",
      "type": "function"
    },
    {
      "inputs": [
        {
          "internalType": "address",
          "name": "token1_",
          "type": "address"
        },
        {
          "internalType": "address",
          "name": "token2_",
          "type": "address"
        },
        {
          "internalType": "uint256",
          "name": "amount1_",
          "type": "uint256"
        },
        {
          "internalType": "uint256",
          "name": "amount2_",
          "type": "uint256"
        }
      ],
      "name": "DepositTokens",
      "outputs": [],
      "stateMutability": "nonpayable",
      "type": "function"
    }
  ],
  "bytecode": "0x608060405234801561001057600080fd5b50336000806101000a81548173ffffffffffffffffffffffffffffffffffffffff021916908373ffffffffffffffffffffffffffffffffffffffff160217905550611100806100606000396000f3fe6080604052600436106100a75760003560e01c80637bbc1323116100645780637bbc1323146101bd57806387fc60aa146101e8578063b69ef8a814610213578063f98e914e1461023e578063fc0c546a14610269578063fc7e286d14610294576100a7565b8063191e2e83146100ac578063279ce221146100d557806354a5706f146100fe578063570728fc1461013b57806359b934fc14610157578063792bd42814610194575b600080fd5b3480156100b857600080fd5b506100d360048036038101906100ce9190610c59565b6102d1565b005b3480156100e157600080fd5b506100fc60048036038101906100f79190610c59565b61040b565b005b34801561010a57600080fd5b5061012560048036038101906101209190610bcd565b6105e7565b6040516101329190610e59565b60405180910390f35b61015560048036038101906101509190610c59565b6105ff565b005b34801561016357600080fd5b5061017e60048036038101906101799190610bcd565b6108dd565b60405161018b9190610e59565b60405180910390f35b3480156101a057600080fd5b506101bb60048036038101906101b69190610bf6565b6108f5565b005b3480156101c957600080fd5b506101d2610a60565b6040516101df9190610e59565b60405180910390f35b3480156101f457600080fd5b506101fd610aa7565b60405161020a9190610e59565b60405180910390f35b34801561021f57600080fd5b50610228610aee565b6040516102359190610e59565b60405180910390f35b34801561024a57600080fd5b50610253610af4565b6040516102609190610e59565b60405180910390f35b34801561027557600080fd5b5061027e610b3b565b60405161028b9190610dfe565b60405180910390f35b3480156102a057600080fd5b506102bb60048036038101906102b69190610bcd565b610b61565b6040516102c89190610e59565b60405180910390f35b80600360003373ffffffffffffffffffffffffffffffffffffffff1673ffffffffffffffffffffffffffffffffffffffff16815260200190815260200160002054101561031d57600080fd5b60008290508073ffffffffffffffffffffffffffffffffffffffff1663a9059cbb33846040518363ffffffff1660e01b815260040161035d929190610dd5565b602060405180830381600087803b15801561037757600080fd5b505af115801561038b573d6000803e3d6000fd5b505050506040513d601f19601f820116820180604052508101906103af9190610c95565b5081600360003373ffffffffffffffffffffffffffffffffffffffff1673ffffffffffffffffffffffffffffffffffffffff16815260200190815260200160002060008282546103ff9190610f35565b92505081905550505050565b600082905060008173ffffffffffffffffffffffffffffffffffffffff1663dd62ed3e33306040518363ffffffff1660e01b815260040161044d929190610d75565b60206040518083038186803b15801561046557600080fd5b505afa158015610479573d6000803e3d6000fd5b505050506040513d601f19601f8201168201806040525081019061049d9190610cbe565b9050828110156104e2576040517f08c379a00000000000000000000000000000000000000000000000000000000081526004016104d990610e39565b60405180910390fd5b8173ffffffffffffffffffffffffffffffffffffffff166323b872dd3330866040518463ffffffff1660e01b815260040161051f93929190610d9e565b602060405180830381600087803b15801561053957600080fd5b505af115801561054d573d6000803e3d6000fd5b505050506040513d601f19601f820116820180604052508101906105719190610c95565b5082600460008282546105849190610eae565b9250508190555082600360003373ffffffffffffffffffffffffffffffffffffffff1673ffffffffffffffffffffffffffffffffffffffff16815260200190815260200160002060008282546105da9190610eae565b9250508190555050505050565b60026020528060005260406000206000915090505481565b81600660006101000a81548173ffffffffffffffffffffffffffffffffffffffff021916908373ffffffffffffffffffffffffffffffffffffffff16021790555080600660009054906101000a900473ffffffffffffffffffffffffffffffffffffffff1673ffffffffffffffffffffffffffffffffffffffff166370a08231306040518263ffffffff1660e01b815260040161069c9190610d5a565b60206040518083038186803b1580156106b457600080fd5b505afa1580156106c8573d6000803e3d6000fd5b505050506040513d601f19601f820116820180604052508101906106ec9190610cbe565b101561072d576040517f08c379a000000000000000000000000000000000000000000000000000000000815260040161072490610e19565b60405180910390fd5b600660009054906101000a900473ffffffffffffffffffffffffffffffffffffffff1673ffffffffffffffffffffffffffffffffffffffff1663a9059cbb336002346107799190610f04565b6040518363ffffffff1660e01b8152600401610796929190610dd5565b602060405180830381600087803b1580156107b057600080fd5b505af11580156107c4573d6000803e3d6000fd5b505050506040513d601f19601f820116820180604052508101906107e89190610c95565b5034600160003373ffffffffffffffffffffffffffffffffffffffff1673ffffffffffffffffffffffffffffffffffffffff16815260200190815260200160002060008282546108389190610eae565b9250508190555060023461084c9190610f04565b600260003373ffffffffffffffffffffffffffffffffffffffff1673ffffffffffffffffffffffffffffffffffffffff168152602001908152602001600020600082825461089a9190610eae565b925050819055507e36624afd4ac14e2ebe9b68a6ec0c6e4f6bf5bde2999a61e1fec085ca86697d33346040516108d1929190610dd5565b60405180910390a15050565b60036020528060005260406000206000915090505481565b600084905060008490508173ffffffffffffffffffffffffffffffffffffffff166323b872dd3330876040518463ffffffff1660e01b815260040161093c93929190610d9e565b602060405180830381600087803b15801561095657600080fd5b505af115801561096a573d6000803e3d6000fd5b505050506040513d601f19601f8201168201806040525081019061098e9190610c95565b508073ffffffffffffffffffffffffffffffffffffffff166323b872dd3330866040518463ffffffff1660e01b81526004016109cc93929190610d9e565b602060405180830381600087803b1580156109e657600080fd5b505af11580156109fa573d6000803e3d6000fd5b505050506040513d601f19601f82011682018060405250810190610a1e9190610c95565b507fff1cd8b4b2d7eb91e1865ab62aeade09b1e481e6f69c302aabe310523d13250e8484604051610a50929190610e74565b60405180910390a1505050505050565b6000600360003373ffffffffffffffffffffffffffffffffffffffff1673ffffffffffffffffffffffffffffffffffffffff16815260200190815260200160002054905090565b6000600160003373ffffffffffffffffffffffffffffffffffffffff1673ffffffffffffffffffffffffffffffffffffffff16815260200190815260200160002054905090565b60055481565b6000600260003373ffffffffffffffffffffffffffffffffffffffff1673ffffffffffffffffffffffffffffffffffffffff16815260200190815260200160002054905090565b600660009054906101000a900473ffffffffffffffffffffffffffffffffffffffff1681565b60016020528060005260406000206000915090505481565b600081359050610b8881611085565b92915050565b600081519050610b9d8161109c565b92915050565b600081359050610bb2816110b3565b92915050565b600081519050610bc7816110b3565b92915050565b600060208284031215610bdf57600080fd5b6000610bed84828501610b79565b91505092915050565b60008060008060808587031215610c0c57600080fd5b6000610c1a87828801610b79565b9450506020610c2b87828801610b79565b9350506040610c3c87828801610ba3565b9250506060610c4d87828801610ba3565b91505092959194509250565b60008060408385031215610c6c57600080fd5b6000610c7a85828601610b79565b9250506020610c8b85828601610ba3565b9150509250929050565b600060208284031215610ca757600080fd5b6000610cb584828501610b8e565b91505092915050565b600060208284031215610cd057600080fd5b6000610cde84828501610bb8565b91505092915050565b610cf081610f69565b82525050565b610cff81610fb1565b82525050565b6000610d12601983610e9d565b9150610d1d82611033565b602082019050919050565b6000610d35601583610e9d565b9150610d408261105c565b602082019050919050565b610d5481610fa7565b82525050565b6000602082019050610d6f6000830184610ce7565b92915050565b6000604082019050610d8a6000830185610ce7565b610d976020830184610ce7565b9392505050565b6000606082019050610db36000830186610ce7565b610dc06020830185610ce7565b610dcd6040830184610d4b565b949350505050565b6000604082019050610dea6000830185610ce7565b610df76020830184610d4b565b9392505050565b6000602082019050610e136000830184610cf6565b92915050565b60006020820190508181036000830152610e3281610d05565b9050919050565b60006020820190508181036000830152610e5281610d28565b9050919050565b6000602082019050610e6e6000830184610d4b565b92915050565b6000604082019050610e896000830185610d4b565b610e966020830184610d4b565b9392505050565b600082825260208201905092915050565b6000610eb982610fa7565b9150610ec483610fa7565b9250827fffffffffffffffffffffffffffffffffffffffffffffffffffffffffffffffff03821115610ef957610ef8610fd5565b5b828201905092915050565b6000610f0f82610fa7565b9150610f1a83610fa7565b925082610f2a57610f29611004565b5b828204905092915050565b6000610f4082610fa7565b9150610f4b83610fa7565b925082821015610f5e57610f5d610fd5565b5b828203905092915050565b6000610f7482610f87565b9050919050565b60008115159050919050565b600073ffffffffffffffffffffffffffffffffffffffff82169050919050565b6000819050919050565b6000610fbc82610fc3565b9050919050565b6000610fce82610f87565b9050919050565b7f4e487b7100000000000000000000000000000000000000000000000000000000600052601160045260246000fd5b7f4e487b7100000000000000000000000000000000000000000000000000000000600052601260045260246000fd5b7f42616c616e6365206973206e6f742073756666696369656e7400000000000000600082015250565b7f4e6f7420656e6f75676820616c6c6f77616e6365210000000000000000000000600082015250565b61108e81610f69565b811461109957600080fd5b50565b6110a581610f7b565b81146110b057600080fd5b50565b6110bc81610fa7565b81146110c757600080fd5b5056fea264697066735822122022fd790e5acf095efb5a1d73b561e29ef707fe7edae6cafa1f899e412e45412364736f6c63430008040033",
  "immutableReferences": {},
  "source": "// SPDX-License-Identifier: MIT\npragma solidity ^0.8.0;\nimport \"@openzeppelin/contracts/token/ERC20/ERC20.sol\";\n\ncontract LendingProtocol {\n    address owner;\n    mapping(address => uint256) public deposits;\n    mapping(address => uint256) public borrows;\n    mapping(address => uint256) public amountLent;\n    uint256 amountToLend;\n\n    constructor() {\n        owner = msg.sender;\n    }\n\n    uint256 public balance;\n\n    ERC20 public token;\n    event AmountReceived(address winner, uint256 amount);\n    event AmountDeposited(uint256 winner, uint256 amount);\n\n    function LoanMe(address add_, uint256 amount) public payable {\n        token = ERC20(add_);\n        require(\n            token.balanceOf(address(this)) >= amount,\n            \"Balance is not sufficient\"\n        );\n        token.transfer(msg.sender, msg.value / 2);\n        deposits[msg.sender] += msg.value;\n        borrows[msg.sender] += msg.value / 2;\n        emit AmountReceived(msg.sender, msg.value);\n    }\n\n    function MyDeposits() public returns (uint256) {\n        return deposits[msg.sender];\n    }\n\n    function MyBorrows() public returns (uint256) {\n        return borrows[msg.sender];\n    }\n\n    function MyLent() public returns (uint256) {\n        return amountLent[msg.sender];\n    }\n\n    function AcceptTokensToLend(address tokentoborrow, uint256 amount) public {\n        ERC20 tokenC = ERC20(tokentoborrow);\n        uint256 availableAllowance =\n            tokenC.allowance(msg.sender, address(this));\n        require(availableAllowance >= amount, \"Not enough allowance!\");\n        tokenC.transferFrom(msg.sender, address(this), amount);\n        amountToLend += amount;\n        amountLent[msg.sender] += amount;\n    }\n\n    function withDraw(address tokenToWithDraw, uint256 amount) public {\n        require(amountLent[msg.sender] >= amount);\n        ERC20 tokenC = ERC20(tokenToWithDraw);\n        tokenC.transfer(msg.sender, amount);\n        amountLent[msg.sender] -= amount;\n    }\n\n    function DepositTokens(\n        address token1_,\n        address token2_,\n        uint256 amount1_,\n        uint256 amount2_\n    ) public {\n        ERC20 token1 = ERC20(token1_);\n        ERC20 token2 = ERC20(token2_);\n        token1.transferFrom(msg.sender, address(this), amount1_);\n        token2.transferFrom(msg.sender, address(this), amount2_);\n        emit AmountDeposited(amount1_, amount2_);\n    }\n}\n",
  "sourcePath": "/Users/praffulsahu/Documents/Crypto/SlowDex/contracts/LendingProtocol.sol",
  "compiler": {
    "name": "solc",
    "version": "0.8.4+commit.c7e474f2.Emscripten.clang"
  },
  "schemaVersion": "3.3.3",
  "updatedAt": "2021-06-06T10:32:17.711Z",
  "networkType": "ethereum",
  "devdoc": {
    "kind": "dev",
    "methods": {},
    "version": 1
  },
  "userdoc": {
    "kind": "user",
    "methods": {},
    "version": 1
  }
}