{
  "contractName": "LendingProtocol",
  "abi": [
    {
      "inputs": [],
      "stateMutability": "nonpayable",
      "type": "constructor"
    },
    {
      "anonymous": false,
      "inputs": [
        {
          "indexed": false,
          "internalType": "uint256",
          "name": "winner",
          "type": "uint256"
        },
        {
          "indexed": false,
          "internalType": "uint256",
          "name": "amount",
          "type": "uint256"
        }
      ],
      "name": "AmountDeposited",
      "type": "event"
    },
    {
      "anonymous": false,
      "inputs": [
        {
          "indexed": false,
          "internalType": "address",
          "name": "winner",
          "type": "address"
        },
        {
          "indexed": false,
          "internalType": "uint256",
          "name": "amount",
          "type": "uint256"
        }
      ],
      "name": "AmountReceived",
      "type": "event"
    },
    {
      "inputs": [],
      "name": "balance",
      "outputs": [
        {
          "internalType": "uint256",
          "name": "",
          "type": "uint256"
        }
      ],
      "stateMutability": "view",
      "type": "function",
      "constant": true
    },
    {
      "inputs": [],
      "name": "token",
      "outputs": [
        {
          "internalType": "contract ERC20",
          "name": "",
          "type": "address"
        }
      ],
      "stateMutability": "view",
      "type": "function",
      "constant": true
    },
    {
      "inputs": [
        {
          "internalType": "address",
          "name": "add_",
          "type": "address"
        },
        {
          "internalType": "uint256",
          "name": "amount",
          "type": "uint256"
        }
      ],
      "name": "LoanMe",
      "outputs": [],
      "stateMutability": "payable",
      "type": "function",
      "payable": true
    },
    {
      "inputs": [
        {
          "internalType": "address",
          "name": "token1_",
          "type": "address"
        },
        {
          "internalType": "address",
          "name": "token2_",
          "type": "address"
        },
        {
          "internalType": "uint256",
          "name": "amount1_",
          "type": "uint256"
        },
        {
          "internalType": "uint256",
          "name": "amount2_",
          "type": "uint256"
        }
      ],
      "name": "DepositTokens",
      "outputs": [],
      "stateMutability": "nonpayable",
      "type": "function"
    }
  ],
  "bytecode": "0x608060405234801561001057600080fd5b50336000806101000a81548173ffffffffffffffffffffffffffffffffffffffff021916908373ffffffffffffffffffffffffffffffffffffffff1602179055506108ac806100606000396000f3fe60806040526004361061003f5760003560e01c8063570728fc14610044578063792bd42814610060578063b69ef8a814610089578063fc0c546a146100b4575b600080fd5b61005e60048036038101906100599190610553565b6100df565b005b34801561006c57600080fd5b50610087600480360381019061008291906104f0565b610305565b005b34801561009557600080fd5b5061009e610470565b6040516100ab91906106e7565b60405180910390f35b3480156100c057600080fd5b506100c9610476565b6040516100d691906106ac565b60405180910390f35b81600260006101000a81548173ffffffffffffffffffffffffffffffffffffffff021916908373ffffffffffffffffffffffffffffffffffffffff16021790555080600260009054906101000a900473ffffffffffffffffffffffffffffffffffffffff1673ffffffffffffffffffffffffffffffffffffffff166370a08231306040518263ffffffff1660e01b815260040161017c9190610631565b60206040518083038186803b15801561019457600080fd5b505afa1580156101a8573d6000803e3d6000fd5b505050506040513d601f19601f820116820180604052508101906101cc91906105b8565b101561020d576040517f08c379a0000000000000000000000000000000000000000000000000000000008152600401610204906106c7565b60405180910390fd5b600260009054906101000a900473ffffffffffffffffffffffffffffffffffffffff1673ffffffffffffffffffffffffffffffffffffffff1663a9059cbb33600234610259919061073c565b6040518363ffffffff1660e01b8152600401610276929190610683565b602060405180830381600087803b15801561029057600080fd5b505af11580156102a4573d6000803e3d6000fd5b505050506040513d601f19601f820116820180604052508101906102c8919061058f565b507e36624afd4ac14e2ebe9b68a6ec0c6e4f6bf5bde2999a61e1fec085ca86697d33346040516102f9929190610683565b60405180910390a15050565b600084905060008490508173ffffffffffffffffffffffffffffffffffffffff166323b872dd3330876040518463ffffffff1660e01b815260040161034c9392919061064c565b602060405180830381600087803b15801561036657600080fd5b505af115801561037a573d6000803e3d6000fd5b505050506040513d601f19601f8201168201806040525081019061039e919061058f565b508073ffffffffffffffffffffffffffffffffffffffff166323b872dd3330866040518463ffffffff1660e01b81526004016103dc9392919061064c565b602060405180830381600087803b1580156103f657600080fd5b505af115801561040a573d6000803e3d6000fd5b505050506040513d601f19601f8201168201806040525081019061042e919061058f565b507fff1cd8b4b2d7eb91e1865ab62aeade09b1e481e6f69c302aabe310523d13250e8484604051610460929190610702565b60405180910390a1505050505050565b60015481565b600260009054906101000a900473ffffffffffffffffffffffffffffffffffffffff1681565b6000813590506104ab81610831565b92915050565b6000815190506104c081610848565b92915050565b6000813590506104d58161085f565b92915050565b6000815190506104ea8161085f565b92915050565b6000806000806080858703121561050657600080fd5b60006105148782880161049c565b94505060206105258782880161049c565b9350506040610536878288016104c6565b9250506060610547878288016104c6565b91505092959194509250565b6000806040838503121561056657600080fd5b60006105748582860161049c565b9250506020610585858286016104c6565b9150509250929050565b6000602082840312156105a157600080fd5b60006105af848285016104b1565b91505092915050565b6000602082840312156105ca57600080fd5b60006105d8848285016104db565b91505092915050565b6105ea8161076d565b82525050565b6105f9816107b5565b82525050565b600061060c60198361072b565b915061061782610808565b602082019050919050565b61062b816107ab565b82525050565b600060208201905061064660008301846105e1565b92915050565b600060608201905061066160008301866105e1565b61066e60208301856105e1565b61067b6040830184610622565b949350505050565b600060408201905061069860008301856105e1565b6106a56020830184610622565b9392505050565b60006020820190506106c160008301846105f0565b92915050565b600060208201905081810360008301526106e0816105ff565b9050919050565b60006020820190506106fc6000830184610622565b92915050565b60006040820190506107176000830185610622565b6107246020830184610622565b9392505050565b600082825260208201905092915050565b6000610747826107ab565b9150610752836107ab565b925082610762576107616107d9565b5b828204905092915050565b60006107788261078b565b9050919050565b60008115159050919050565b600073ffffffffffffffffffffffffffffffffffffffff82169050919050565b6000819050919050565b60006107c0826107c7565b9050919050565b60006107d28261078b565b9050919050565b7f4e487b7100000000000000000000000000000000000000000000000000000000600052601260045260246000fd5b7f42616c616e6365206973206e6f742073756666696369656e7400000000000000600082015250565b61083a8161076d565b811461084557600080fd5b50565b6108518161077f565b811461085c57600080fd5b50565b610868816107ab565b811461087357600080fd5b5056fea2646970667358221220282feb8e5f60cfb42b869d24506f7fb9ba878bcf166d090afd82a5845e1ed40264736f6c63430008040033",
  "immutableReferences": {},
  "source": "// SPDX-License-Identifier: MIT\npragma solidity ^0.8.0;\nimport \"@openzeppelin/contracts/token/ERC20/ERC20.sol\";\n\ncontract LendingProtocol {\n    address owner;\n\n    constructor() {\n        owner = msg.sender;\n    }\n\n    uint256 public balance;\n\n    ERC20 public token;\n    event AmountReceived(address winner, uint256 amount);\n    event AmountDeposited(uint256 winner, uint256 amount);\n\n    function LoanMe(address add_, uint256 amount) public payable {\n        // require(balance >= amount);\n        token = ERC20(add_);\n        require(\n            token.balanceOf(address(this)) >= amount,\n            \"Balance is not sufficient\"\n        );\n        token.transfer(msg.sender, msg.value / 2);\n        emit AmountReceived(msg.sender, msg.value);\n    }\n\n    function DepositTokens(\n        address token1_,\n        address token2_,\n        uint256 amount1_,\n        uint256 amount2_\n    ) public {\n        ERC20 token1 = ERC20(token1_);\n        ERC20 token2 = ERC20(token2_);\n        // token1_.delegatecall(\n        //     abi.encodeWithSignature(\n        //         \"transfer(address,uint256)\",\n        //         address(this),\n        //         amount1_\n        //     )\n        // );\n        // token2_.delegatecall(\n        //     abi.encodeWithSignature(\n        //         \"transfer(address,uint256)\",\n        //         address(this),\n        //         amount2_\n        //     )\n        // );\n        token1.transferFrom(msg.sender, address(this), amount1_);\n        token2.transferFrom(msg.sender, address(this), amount2_);\n        emit AmountDeposited(amount1_, amount2_);\n    }\n}\n",
  "sourcePath": "/Users/praffulsahu/Documents/Crypto/SlowDex/contracts/LendingProtocol.sol",
  "compiler": {
    "name": "solc",
    "version": "0.8.4+commit.c7e474f2.Emscripten.clang"
  },
  "schemaVersion": "3.3.3",
  "updatedAt": "2021-06-04T03:09:08.542Z",
  "networkType": "ethereum",
  "devdoc": {
    "kind": "dev",
    "methods": {},
    "version": 1
  },
  "userdoc": {
    "kind": "user",
    "methods": {},
    "version": 1
  }
}