{
  "contractName": "LendingProtocol",
  "abi": [
    {
      "inputs": [],
      "stateMutability": "nonpayable",
      "type": "constructor"
    },
    {
      "anonymous": false,
      "inputs": [
        {
          "indexed": false,
          "internalType": "uint256",
          "name": "winner",
          "type": "uint256"
        },
        {
          "indexed": false,
          "internalType": "uint256",
          "name": "amount",
          "type": "uint256"
        }
      ],
      "name": "AmountDeposited",
      "type": "event"
    },
    {
      "anonymous": false,
      "inputs": [
        {
          "indexed": false,
          "internalType": "address",
          "name": "winner",
          "type": "address"
        },
        {
          "indexed": false,
          "internalType": "uint256",
          "name": "amount",
          "type": "uint256"
        }
      ],
      "name": "AmountReceived",
      "type": "event"
    },
    {
      "inputs": [
        {
          "internalType": "address",
          "name": "",
          "type": "address"
        }
      ],
      "name": "amountLent",
      "outputs": [
        {
          "internalType": "uint256",
          "name": "",
          "type": "uint256"
        }
      ],
      "stateMutability": "view",
      "type": "function",
      "constant": true
    },
    {
      "inputs": [],
      "name": "balance",
      "outputs": [
        {
          "internalType": "uint256",
          "name": "",
          "type": "uint256"
        }
      ],
      "stateMutability": "view",
      "type": "function",
      "constant": true
    },
    {
      "inputs": [
        {
          "internalType": "address",
          "name": "",
          "type": "address"
        }
      ],
      "name": "borrows",
      "outputs": [
        {
          "internalType": "uint256",
          "name": "",
          "type": "uint256"
        }
      ],
      "stateMutability": "view",
      "type": "function",
      "constant": true
    },
    {
      "inputs": [
        {
          "internalType": "address",
          "name": "",
          "type": "address"
        }
      ],
      "name": "deposits",
      "outputs": [
        {
          "internalType": "uint256",
          "name": "",
          "type": "uint256"
        }
      ],
      "stateMutability": "view",
      "type": "function",
      "constant": true
    },
    {
      "inputs": [],
      "name": "token",
      "outputs": [
        {
          "internalType": "contract ERC20",
          "name": "",
          "type": "address"
        }
      ],
      "stateMutability": "view",
      "type": "function",
      "constant": true
    },
    {
      "inputs": [
        {
          "internalType": "address",
          "name": "add_",
          "type": "address"
        },
        {
          "internalType": "uint256",
          "name": "amount",
          "type": "uint256"
        }
      ],
      "name": "LoanMe",
      "outputs": [],
      "stateMutability": "payable",
      "type": "function",
      "payable": true
    },
    {
      "inputs": [],
      "name": "MyDeposits",
      "outputs": [
        {
          "internalType": "uint256",
          "name": "",
          "type": "uint256"
        }
      ],
      "stateMutability": "nonpayable",
      "type": "function"
    },
    {
      "inputs": [],
      "name": "MyBorrows",
      "outputs": [
        {
          "internalType": "uint256",
          "name": "",
          "type": "uint256"
        }
      ],
      "stateMutability": "nonpayable",
      "type": "function"
    },
    {
      "inputs": [
        {
          "internalType": "address",
          "name": "token",
          "type": "address"
        },
        {
          "internalType": "uint256",
          "name": "amount",
          "type": "uint256"
        }
      ],
      "name": "AcceptTokensToLend",
      "outputs": [],
      "stateMutability": "nonpayable",
      "type": "function"
    },
    {
      "inputs": [
        {
          "internalType": "address",
          "name": "token1_",
          "type": "address"
        },
        {
          "internalType": "address",
          "name": "token2_",
          "type": "address"
        },
        {
          "internalType": "uint256",
          "name": "amount1_",
          "type": "uint256"
        },
        {
          "internalType": "uint256",
          "name": "amount2_",
          "type": "uint256"
        }
      ],
      "name": "DepositTokens",
      "outputs": [],
      "stateMutability": "nonpayable",
      "type": "function"
    }
  ],
  "bytecode": "0x608060405234801561001057600080fd5b50336000806101000a81548173ffffffffffffffffffffffffffffffffffffffff021916908373ffffffffffffffffffffffffffffffffffffffff160217905550610d79806100606000396000f3fe6080604052600436106100915760003560e01c806387fc60aa1161005957806387fc60aa1461017e578063b69ef8a8146101a9578063f98e914e146101d4578063fc0c546a146101ff578063fc7e286d1461022a57610091565b8063279ce2211461009657806354a5706f146100bf578063570728fc146100fc57806359b934fc14610118578063792bd42814610155575b600080fd5b3480156100a257600080fd5b506100bd60048036038101906100b8919061099b565b610267565b005b3480156100cb57600080fd5b506100e660048036038101906100e1919061090f565b610370565b6040516100f39190610b2f565b60405180910390f35b6101166004803603810190610111919061099b565b610388565b005b34801561012457600080fd5b5061013f600480360381019061013a919061090f565b610666565b60405161014c9190610b2f565b60405180910390f35b34801561016157600080fd5b5061017c60048036038101906101779190610938565b61067e565b005b34801561018a57600080fd5b506101936107e9565b6040516101a09190610b2f565b60405180910390f35b3480156101b557600080fd5b506101be610830565b6040516101cb9190610b2f565b60405180910390f35b3480156101e057600080fd5b506101e9610836565b6040516101f69190610b2f565b60405180910390f35b34801561020b57600080fd5b5061021461087d565b6040516102219190610af4565b60405180910390f35b34801561023657600080fd5b50610251600480360381019061024c919061090f565b6108a3565b60405161025e9190610b2f565b60405180910390f35b60008290508073ffffffffffffffffffffffffffffffffffffffff166323b872dd3330856040518463ffffffff1660e01b81526004016102a993929190610a94565b602060405180830381600087803b1580156102c357600080fd5b505af11580156102d7573d6000803e3d6000fd5b505050506040513d601f19601f820116820180604052508101906102fb91906109d7565b50816004600082825461030e9190610b84565b9250508190555081600360003373ffffffffffffffffffffffffffffffffffffffff1673ffffffffffffffffffffffffffffffffffffffff16815260200190815260200160002060008282546103649190610b84565b92505081905550505050565b60026020528060005260406000206000915090505481565b81600660006101000a81548173ffffffffffffffffffffffffffffffffffffffff021916908373ffffffffffffffffffffffffffffffffffffffff16021790555080600660009054906101000a900473ffffffffffffffffffffffffffffffffffffffff1673ffffffffffffffffffffffffffffffffffffffff166370a08231306040518263ffffffff1660e01b81526004016104259190610a79565b60206040518083038186803b15801561043d57600080fd5b505afa158015610451573d6000803e3d6000fd5b505050506040513d601f19601f820116820180604052508101906104759190610a00565b10156104b6576040517f08c379a00000000000000000000000000000000000000000000000000000000081526004016104ad90610b0f565b60405180910390fd5b600660009054906101000a900473ffffffffffffffffffffffffffffffffffffffff1673ffffffffffffffffffffffffffffffffffffffff1663a9059cbb336002346105029190610bda565b6040518363ffffffff1660e01b815260040161051f929190610acb565b602060405180830381600087803b15801561053957600080fd5b505af115801561054d573d6000803e3d6000fd5b505050506040513d601f19601f8201168201806040525081019061057191906109d7565b5034600160003373ffffffffffffffffffffffffffffffffffffffff1673ffffffffffffffffffffffffffffffffffffffff16815260200190815260200160002060008282546105c19190610b84565b925050819055506002346105d59190610bda565b600260003373ffffffffffffffffffffffffffffffffffffffff1673ffffffffffffffffffffffffffffffffffffffff16815260200190815260200160002060008282546106239190610b84565b925050819055507e36624afd4ac14e2ebe9b68a6ec0c6e4f6bf5bde2999a61e1fec085ca86697d333460405161065a929190610acb565b60405180910390a15050565b60036020528060005260406000206000915090505481565b600084905060008490508173ffffffffffffffffffffffffffffffffffffffff166323b872dd3330876040518463ffffffff1660e01b81526004016106c593929190610a94565b602060405180830381600087803b1580156106df57600080fd5b505af11580156106f3573d6000803e3d6000fd5b505050506040513d601f19601f8201168201806040525081019061071791906109d7565b508073ffffffffffffffffffffffffffffffffffffffff166323b872dd3330866040518463ffffffff1660e01b815260040161075593929190610a94565b602060405180830381600087803b15801561076f57600080fd5b505af1158015610783573d6000803e3d6000fd5b505050506040513d601f19601f820116820180604052508101906107a791906109d7565b507fff1cd8b4b2d7eb91e1865ab62aeade09b1e481e6f69c302aabe310523d13250e84846040516107d9929190610b4a565b60405180910390a1505050505050565b6000600160003373ffffffffffffffffffffffffffffffffffffffff1673ffffffffffffffffffffffffffffffffffffffff16815260200190815260200160002054905090565b60055481565b6000600260003373ffffffffffffffffffffffffffffffffffffffff1673ffffffffffffffffffffffffffffffffffffffff16815260200190815260200160002054905090565b600660009054906101000a900473ffffffffffffffffffffffffffffffffffffffff1681565b60016020528060005260406000206000915090505481565b6000813590506108ca81610cfe565b92915050565b6000815190506108df81610d15565b92915050565b6000813590506108f481610d2c565b92915050565b60008151905061090981610d2c565b92915050565b60006020828403121561092157600080fd5b600061092f848285016108bb565b91505092915050565b6000806000806080858703121561094e57600080fd5b600061095c878288016108bb565b945050602061096d878288016108bb565b935050604061097e878288016108e5565b925050606061098f878288016108e5565b91505092959194509250565b600080604083850312156109ae57600080fd5b60006109bc858286016108bb565b92505060206109cd858286016108e5565b9150509250929050565b6000602082840312156109e957600080fd5b60006109f7848285016108d0565b91505092915050565b600060208284031215610a1257600080fd5b6000610a20848285016108fa565b91505092915050565b610a3281610c0b565b82525050565b610a4181610c53565b82525050565b6000610a54601983610b73565b9150610a5f82610cd5565b602082019050919050565b610a7381610c49565b82525050565b6000602082019050610a8e6000830184610a29565b92915050565b6000606082019050610aa96000830186610a29565b610ab66020830185610a29565b610ac36040830184610a6a565b949350505050565b6000604082019050610ae06000830185610a29565b610aed6020830184610a6a565b9392505050565b6000602082019050610b096000830184610a38565b92915050565b60006020820190508181036000830152610b2881610a47565b9050919050565b6000602082019050610b446000830184610a6a565b92915050565b6000604082019050610b5f6000830185610a6a565b610b6c6020830184610a6a565b9392505050565b600082825260208201905092915050565b6000610b8f82610c49565b9150610b9a83610c49565b9250827fffffffffffffffffffffffffffffffffffffffffffffffffffffffffffffffff03821115610bcf57610bce610c77565b5b828201905092915050565b6000610be582610c49565b9150610bf083610c49565b925082610c0057610bff610ca6565b5b828204905092915050565b6000610c1682610c29565b9050919050565b60008115159050919050565b600073ffffffffffffffffffffffffffffffffffffffff82169050919050565b6000819050919050565b6000610c5e82610c65565b9050919050565b6000610c7082610c29565b9050919050565b7f4e487b7100000000000000000000000000000000000000000000000000000000600052601160045260246000fd5b7f4e487b7100000000000000000000000000000000000000000000000000000000600052601260045260246000fd5b7f42616c616e6365206973206e6f742073756666696369656e7400000000000000600082015250565b610d0781610c0b565b8114610d1257600080fd5b50565b610d1e81610c1d565b8114610d2957600080fd5b50565b610d3581610c49565b8114610d4057600080fd5b5056fea26469706673582212200af10e359b0fbc65d640ac28b3a5a9abdfa6742a4df3b36b9118fb5090e2a2a264736f6c63430008040033",
  "immutableReferences": {},
  "source": "// SPDX-License-Identifier: MIT\npragma solidity ^0.8.0;\nimport \"@openzeppelin/contracts/token/ERC20/ERC20.sol\";\n\ncontract LendingProtocol {\n    address owner;\n    mapping(address => uint256) public deposits;\n    mapping(address => uint256) public borrows;\n    mapping(address => uint256) public amountLent;\n    uint256 amountToLend;\n\n    constructor() {\n        owner = msg.sender;\n    }\n\n    uint256 public balance;\n\n    ERC20 public token;\n    event AmountReceived(address winner, uint256 amount);\n    event AmountDeposited(uint256 winner, uint256 amount);\n\n    function LoanMe(address add_, uint256 amount) public payable {\n        token = ERC20(add_);\n        require(\n            token.balanceOf(address(this)) >= amount,\n            \"Balance is not sufficient\"\n        );\n        token.transfer(msg.sender, msg.value / 2);\n        deposits[msg.sender] += msg.value;\n        borrows[msg.sender] += msg.value / 2;\n        emit AmountReceived(msg.sender, msg.value);\n    }\n\n    function MyDeposits() public returns (uint256) {\n        return deposits[msg.sender];\n    }\n\n    function MyBorrows() public returns (uint256) {\n        return borrows[msg.sender];\n    }\n\n    function AcceptTokensToLend(address token, uint256 amount) public {\n        ERC20 tokenC = ERC20(token);\n        tokenC.transferFrom(msg.sender, address(this), amount);\n        amountToLend += amount;\n        amountLent[msg.sender] += amount;\n    }\n\n    function DepositTokens(\n        address token1_,\n        address token2_,\n        uint256 amount1_,\n        uint256 amount2_\n    ) public {\n        ERC20 token1 = ERC20(token1_);\n        ERC20 token2 = ERC20(token2_);\n        token1.transferFrom(msg.sender, address(this), amount1_);\n        token2.transferFrom(msg.sender, address(this), amount2_);\n        emit AmountDeposited(amount1_, amount2_);\n    }\n}\n",
  "sourcePath": "/Users/praffulsahu/Documents/Crypto/SlowDex/contracts/LendingProtocol.sol",
  "compiler": {
    "name": "solc",
    "version": "0.8.4+commit.c7e474f2.Emscripten.clang"
  },
  "schemaVersion": "3.3.3",
  "updatedAt": "2021-06-04T08:47:42.370Z",
  "networkType": "ethereum",
  "devdoc": {
    "kind": "dev",
    "methods": {},
    "version": 1
  },
  "userdoc": {
    "kind": "user",
    "methods": {},
    "version": 1
  }
}