{
  "contractName": "LendingProtocol",
  "abi": [
    {
      "inputs": [],
      "stateMutability": "nonpayable",
      "type": "constructor"
    },
    {
      "anonymous": false,
      "inputs": [
        {
          "indexed": false,
          "internalType": "uint256",
          "name": "winner",
          "type": "uint256"
        },
        {
          "indexed": false,
          "internalType": "uint256",
          "name": "amount",
          "type": "uint256"
        }
      ],
      "name": "AmountDeposited",
      "type": "event"
    },
    {
      "anonymous": false,
      "inputs": [
        {
          "indexed": false,
          "internalType": "address",
          "name": "winner",
          "type": "address"
        },
        {
          "indexed": false,
          "internalType": "uint256",
          "name": "amount",
          "type": "uint256"
        }
      ],
      "name": "AmountReceived",
      "type": "event"
    },
    {
      "inputs": [
        {
          "internalType": "address",
          "name": "",
          "type": "address"
        }
      ],
      "name": "amountLent",
      "outputs": [
        {
          "internalType": "uint256",
          "name": "",
          "type": "uint256"
        }
      ],
      "stateMutability": "view",
      "type": "function",
      "constant": true
    },
    {
      "inputs": [],
      "name": "balance",
      "outputs": [
        {
          "internalType": "uint256",
          "name": "",
          "type": "uint256"
        }
      ],
      "stateMutability": "view",
      "type": "function",
      "constant": true
    },
    {
      "inputs": [
        {
          "internalType": "address",
          "name": "",
          "type": "address"
        }
      ],
      "name": "borrows",
      "outputs": [
        {
          "internalType": "uint256",
          "name": "",
          "type": "uint256"
        }
      ],
      "stateMutability": "view",
      "type": "function",
      "constant": true
    },
    {
      "inputs": [
        {
          "internalType": "address",
          "name": "",
          "type": "address"
        }
      ],
      "name": "deposits",
      "outputs": [
        {
          "internalType": "uint256",
          "name": "",
          "type": "uint256"
        }
      ],
      "stateMutability": "view",
      "type": "function",
      "constant": true
    },
    {
      "inputs": [],
      "name": "token",
      "outputs": [
        {
          "internalType": "contract ERC20",
          "name": "",
          "type": "address"
        }
      ],
      "stateMutability": "view",
      "type": "function",
      "constant": true
    },
    {
      "inputs": [
        {
          "internalType": "address",
          "name": "add_",
          "type": "address"
        },
        {
          "internalType": "uint256",
          "name": "amount",
          "type": "uint256"
        }
      ],
      "name": "LoanMe",
      "outputs": [],
      "stateMutability": "payable",
      "type": "function",
      "payable": true
    },
    {
      "inputs": [],
      "name": "MyDeposits",
      "outputs": [
        {
          "internalType": "uint256",
          "name": "",
          "type": "uint256"
        }
      ],
      "stateMutability": "nonpayable",
      "type": "function"
    },
    {
      "inputs": [],
      "name": "MyBorrows",
      "outputs": [
        {
          "internalType": "uint256",
          "name": "",
          "type": "uint256"
        }
      ],
      "stateMutability": "nonpayable",
      "type": "function"
    },
    {
      "inputs": [
        {
          "internalType": "address",
          "name": "tokentoborrow",
          "type": "address"
        },
        {
          "internalType": "uint256",
          "name": "amount",
          "type": "uint256"
        }
      ],
      "name": "AcceptTokensToLend",
      "outputs": [],
      "stateMutability": "nonpayable",
      "type": "function"
    },
    {
      "inputs": [
        {
          "internalType": "address",
          "name": "tokenToWithDraw",
          "type": "address"
        },
        {
          "internalType": "uint256",
          "name": "amount",
          "type": "uint256"
        }
      ],
      "name": "withDraw",
      "outputs": [],
      "stateMutability": "nonpayable",
      "type": "function"
    },
    {
      "inputs": [
        {
          "internalType": "address",
          "name": "token1_",
          "type": "address"
        },
        {
          "internalType": "address",
          "name": "token2_",
          "type": "address"
        },
        {
          "internalType": "uint256",
          "name": "amount1_",
          "type": "uint256"
        },
        {
          "internalType": "uint256",
          "name": "amount2_",
          "type": "uint256"
        }
      ],
      "name": "DepositTokens",
      "outputs": [],
      "stateMutability": "nonpayable",
      "type": "function"
    }
  ],
  "bytecode": "0x608060405234801561001057600080fd5b50336000806101000a81548173ffffffffffffffffffffffffffffffffffffffff021916908373ffffffffffffffffffffffffffffffffffffffff160217905550611083806100606000396000f3fe60806040526004361061009c5760003560e01c8063792bd42811610064578063792bd4281461018957806387fc60aa146101b2578063b69ef8a8146101dd578063f98e914e14610208578063fc0c546a14610233578063fc7e286d1461025e5761009c565b8063191e2e83146100a1578063279ce221146100ca57806354a5706f146100f3578063570728fc1461013057806359b934fc1461014c575b600080fd5b3480156100ad57600080fd5b506100c860048036038101906100c39190610bdc565b61029b565b005b3480156100d657600080fd5b506100f160048036038101906100ec9190610bdc565b6103d5565b005b3480156100ff57600080fd5b5061011a60048036038101906101159190610b50565b6105b1565b6040516101279190610ddc565b60405180910390f35b61014a60048036038101906101459190610bdc565b6105c9565b005b34801561015857600080fd5b50610173600480360381019061016e9190610b50565b6108a7565b6040516101809190610ddc565b60405180910390f35b34801561019557600080fd5b506101b060048036038101906101ab9190610b79565b6108bf565b005b3480156101be57600080fd5b506101c7610a2a565b6040516101d49190610ddc565b60405180910390f35b3480156101e957600080fd5b506101f2610a71565b6040516101ff9190610ddc565b60405180910390f35b34801561021457600080fd5b5061021d610a77565b60405161022a9190610ddc565b60405180910390f35b34801561023f57600080fd5b50610248610abe565b6040516102559190610d81565b60405180910390f35b34801561026a57600080fd5b5061028560048036038101906102809190610b50565b610ae4565b6040516102929190610ddc565b60405180910390f35b80600360003373ffffffffffffffffffffffffffffffffffffffff1673ffffffffffffffffffffffffffffffffffffffff1681526020019081526020016000205410156102e757600080fd5b60008290508073ffffffffffffffffffffffffffffffffffffffff1663a9059cbb33846040518363ffffffff1660e01b8152600401610327929190610d58565b602060405180830381600087803b15801561034157600080fd5b505af1158015610355573d6000803e3d6000fd5b505050506040513d601f19601f820116820180604052508101906103799190610c18565b5081600360003373ffffffffffffffffffffffffffffffffffffffff1673ffffffffffffffffffffffffffffffffffffffff16815260200190815260200160002060008282546103c99190610eb8565b92505081905550505050565b600082905060008173ffffffffffffffffffffffffffffffffffffffff1663dd62ed3e33306040518363ffffffff1660e01b8152600401610417929190610cf8565b60206040518083038186803b15801561042f57600080fd5b505afa158015610443573d6000803e3d6000fd5b505050506040513d601f19601f820116820180604052508101906104679190610c41565b9050828110156104ac576040517f08c379a00000000000000000000000000000000000000000000000000000000081526004016104a390610dbc565b60405180910390fd5b8173ffffffffffffffffffffffffffffffffffffffff166323b872dd3330866040518463ffffffff1660e01b81526004016104e993929190610d21565b602060405180830381600087803b15801561050357600080fd5b505af1158015610517573d6000803e3d6000fd5b505050506040513d601f19601f8201168201806040525081019061053b9190610c18565b50826004600082825461054e9190610e31565b9250508190555082600360003373ffffffffffffffffffffffffffffffffffffffff1673ffffffffffffffffffffffffffffffffffffffff16815260200190815260200160002060008282546105a49190610e31565b9250508190555050505050565b60026020528060005260406000206000915090505481565b81600660006101000a81548173ffffffffffffffffffffffffffffffffffffffff021916908373ffffffffffffffffffffffffffffffffffffffff16021790555080600660009054906101000a900473ffffffffffffffffffffffffffffffffffffffff1673ffffffffffffffffffffffffffffffffffffffff166370a08231306040518263ffffffff1660e01b81526004016106669190610cdd565b60206040518083038186803b15801561067e57600080fd5b505afa158015610692573d6000803e3d6000fd5b505050506040513d601f19601f820116820180604052508101906106b69190610c41565b10156106f7576040517f08c379a00000000000000000000000000000000000000000000000000000000081526004016106ee90610d9c565b60405180910390fd5b600660009054906101000a900473ffffffffffffffffffffffffffffffffffffffff1673ffffffffffffffffffffffffffffffffffffffff1663a9059cbb336002346107439190610e87565b6040518363ffffffff1660e01b8152600401610760929190610d58565b602060405180830381600087803b15801561077a57600080fd5b505af115801561078e573d6000803e3d6000fd5b505050506040513d601f19601f820116820180604052508101906107b29190610c18565b5034600160003373ffffffffffffffffffffffffffffffffffffffff1673ffffffffffffffffffffffffffffffffffffffff16815260200190815260200160002060008282546108029190610e31565b925050819055506002346108169190610e87565b600260003373ffffffffffffffffffffffffffffffffffffffff1673ffffffffffffffffffffffffffffffffffffffff16815260200190815260200160002060008282546108649190610e31565b925050819055507e36624afd4ac14e2ebe9b68a6ec0c6e4f6bf5bde2999a61e1fec085ca86697d333460405161089b929190610d58565b60405180910390a15050565b60036020528060005260406000206000915090505481565b600084905060008490508173ffffffffffffffffffffffffffffffffffffffff166323b872dd3330876040518463ffffffff1660e01b815260040161090693929190610d21565b602060405180830381600087803b15801561092057600080fd5b505af1158015610934573d6000803e3d6000fd5b505050506040513d601f19601f820116820180604052508101906109589190610c18565b508073ffffffffffffffffffffffffffffffffffffffff166323b872dd3330866040518463ffffffff1660e01b815260040161099693929190610d21565b602060405180830381600087803b1580156109b057600080fd5b505af11580156109c4573d6000803e3d6000fd5b505050506040513d601f19601f820116820180604052508101906109e89190610c18565b507fff1cd8b4b2d7eb91e1865ab62aeade09b1e481e6f69c302aabe310523d13250e8484604051610a1a929190610df7565b60405180910390a1505050505050565b6000600160003373ffffffffffffffffffffffffffffffffffffffff1673ffffffffffffffffffffffffffffffffffffffff16815260200190815260200160002054905090565b60055481565b6000600260003373ffffffffffffffffffffffffffffffffffffffff1673ffffffffffffffffffffffffffffffffffffffff16815260200190815260200160002054905090565b600660009054906101000a900473ffffffffffffffffffffffffffffffffffffffff1681565b60016020528060005260406000206000915090505481565b600081359050610b0b81611008565b92915050565b600081519050610b208161101f565b92915050565b600081359050610b3581611036565b92915050565b600081519050610b4a81611036565b92915050565b600060208284031215610b6257600080fd5b6000610b7084828501610afc565b91505092915050565b60008060008060808587031215610b8f57600080fd5b6000610b9d87828801610afc565b9450506020610bae87828801610afc565b9350506040610bbf87828801610b26565b9250506060610bd087828801610b26565b91505092959194509250565b60008060408385031215610bef57600080fd5b6000610bfd85828601610afc565b9250506020610c0e85828601610b26565b9150509250929050565b600060208284031215610c2a57600080fd5b6000610c3884828501610b11565b91505092915050565b600060208284031215610c5357600080fd5b6000610c6184828501610b3b565b91505092915050565b610c7381610eec565b82525050565b610c8281610f34565b82525050565b6000610c95601983610e20565b9150610ca082610fb6565b602082019050919050565b6000610cb8601583610e20565b9150610cc382610fdf565b602082019050919050565b610cd781610f2a565b82525050565b6000602082019050610cf26000830184610c6a565b92915050565b6000604082019050610d0d6000830185610c6a565b610d1a6020830184610c6a565b9392505050565b6000606082019050610d366000830186610c6a565b610d436020830185610c6a565b610d506040830184610cce565b949350505050565b6000604082019050610d6d6000830185610c6a565b610d7a6020830184610cce565b9392505050565b6000602082019050610d966000830184610c79565b92915050565b60006020820190508181036000830152610db581610c88565b9050919050565b60006020820190508181036000830152610dd581610cab565b9050919050565b6000602082019050610df16000830184610cce565b92915050565b6000604082019050610e0c6000830185610cce565b610e196020830184610cce565b9392505050565b600082825260208201905092915050565b6000610e3c82610f2a565b9150610e4783610f2a565b9250827fffffffffffffffffffffffffffffffffffffffffffffffffffffffffffffffff03821115610e7c57610e7b610f58565b5b828201905092915050565b6000610e9282610f2a565b9150610e9d83610f2a565b925082610ead57610eac610f87565b5b828204905092915050565b6000610ec382610f2a565b9150610ece83610f2a565b925082821015610ee157610ee0610f58565b5b828203905092915050565b6000610ef782610f0a565b9050919050565b60008115159050919050565b600073ffffffffffffffffffffffffffffffffffffffff82169050919050565b6000819050919050565b6000610f3f82610f46565b9050919050565b6000610f5182610f0a565b9050919050565b7f4e487b7100000000000000000000000000000000000000000000000000000000600052601160045260246000fd5b7f4e487b7100000000000000000000000000000000000000000000000000000000600052601260045260246000fd5b7f42616c616e6365206973206e6f742073756666696369656e7400000000000000600082015250565b7f4e6f7420656e6f75676820616c6c6f77616e6365210000000000000000000000600082015250565b61101181610eec565b811461101c57600080fd5b50565b61102881610efe565b811461103357600080fd5b50565b61103f81610f2a565b811461104a57600080fd5b5056fea26469706673582212200111ac7fa79fb0ddccfeb82a98a0ba86eec424c18c4b9c935ca1c9c4bbad1c6364736f6c63430008040033",
  "immutableReferences": {},
  "source": "// SPDX-License-Identifier: MIT\npragma solidity ^0.8.0;\nimport \"@openzeppelin/contracts/token/ERC20/ERC20.sol\";\n\ncontract LendingProtocol {\n    address owner;\n    mapping(address => uint256) public deposits;\n    mapping(address => uint256) public borrows;\n    mapping(address => uint256) public amountLent;\n    uint256 amountToLend;\n\n    constructor() {\n        owner = msg.sender;\n    }\n\n    uint256 public balance;\n\n    ERC20 public token;\n    event AmountReceived(address winner, uint256 amount);\n    event AmountDeposited(uint256 winner, uint256 amount);\n\n    function LoanMe(address add_, uint256 amount) public payable {\n        token = ERC20(add_);\n        require(\n            token.balanceOf(address(this)) >= amount,\n            \"Balance is not sufficient\"\n        );\n        token.transfer(msg.sender, msg.value / 2);\n        deposits[msg.sender] += msg.value;\n        borrows[msg.sender] += msg.value / 2;\n        emit AmountReceived(msg.sender, msg.value);\n    }\n\n    function MyDeposits() public returns (uint256) {\n        return deposits[msg.sender];\n    }\n\n    function MyBorrows() public returns (uint256) {\n        return borrows[msg.sender];\n    }\n\n    function AcceptTokensToLend(address tokentoborrow, uint256 amount) public {\n        ERC20 tokenC = ERC20(tokentoborrow);\n        uint256 availableAllowance =\n            tokenC.allowance(msg.sender, address(this));\n        require(availableAllowance >= amount, \"Not enough allowance!\");\n        tokenC.transferFrom(msg.sender, address(this), amount);\n        amountToLend += amount;\n        amountLent[msg.sender] += amount;\n    }\n\n    function withDraw(address tokenToWithDraw, uint256 amount) public {\n        require(amountLent[msg.sender] >= amount);\n        ERC20 tokenC = ERC20(tokenToWithDraw);\n        tokenC.transfer(msg.sender, amount);\n        amountLent[msg.sender] -= amount;\n    }\n\n    function DepositTokens(\n        address token1_,\n        address token2_,\n        uint256 amount1_,\n        uint256 amount2_\n    ) public {\n        ERC20 token1 = ERC20(token1_);\n        ERC20 token2 = ERC20(token2_);\n        token1.transferFrom(msg.sender, address(this), amount1_);\n        token2.transferFrom(msg.sender, address(this), amount2_);\n        emit AmountDeposited(amount1_, amount2_);\n    }\n}\n",
  "sourcePath": "/Users/praffulsahu/Documents/Crypto/SlowDex/contracts/LendingProtocol.sol",
  "compiler": {
    "name": "solc",
    "version": "0.8.4+commit.c7e474f2.Emscripten.clang"
  },
  "schemaVersion": "3.3.3",
  "updatedAt": "2021-06-04T10:50:42.394Z",
  "networkType": "ethereum",
  "devdoc": {
    "kind": "dev",
    "methods": {},
    "version": 1
  },
  "userdoc": {
    "kind": "user",
    "methods": {},
    "version": 1
  }
}