{
  "contractName": "SlowDex",
  "abi": [
    {
      "inputs": [],
      "name": "ERC20Interface",
      "outputs": [
        {
          "internalType": "contract ERC20",
          "name": "",
          "type": "address"
        }
      ],
      "stateMutability": "view",
      "type": "function",
      "constant": true
    },
    {
      "inputs": [
        {
          "internalType": "address",
          "name": "token",
          "type": "address"
        },
        {
          "internalType": "uint256",
          "name": "value",
          "type": "uint256"
        }
      ],
      "name": "InitiateTransfer",
      "outputs": [],
      "stateMutability": "nonpayable",
      "type": "function"
    },
    {
      "inputs": [
        {
          "internalType": "address",
          "name": "token",
          "type": "address"
        },
        {
          "internalType": "uint256",
          "name": "amount_",
          "type": "uint256"
        }
      ],
      "name": "transferTokens",
      "outputs": [],
      "stateMutability": "nonpayable",
      "type": "function"
    }
  ],
  "bytecode": "0x608060405234801561001057600080fd5b50610629806100206000396000f3fe608060405234801561001057600080fd5b50600436106100415760003560e01c80631bbc4b83146100465780639bac28e514610064578063bec3fa1714610080575b600080fd5b61004e61009c565b60405161005b919061045e565b60405180910390f35b61007e6004803603810190610079919061032a565b6100c0565b005b61009a6004803603810190610095919061032a565b6101f7565b005b60008054906101000a900473ffffffffffffffffffffffffffffffffffffffff1681565b6000808373ffffffffffffffffffffffffffffffffffffffff166323b872dd3330866040516024016100f493929190610427565b6040516020818303038152906040529060e01b6020820180517bffffffffffffffffffffffffffffffffffffffffffffffffffffffff83818316178352505050506040516101429190610410565b6000604051808303816000865af19150503d806000811461017f576040519150601f19603f3d011682016040523d82523d6000602084013e610184565b606091505b50915091508180156101b257506000815114806101b15750808060200190518101906101b09190610366565b5b5b6101f1576040517f08c379a00000000000000000000000000000000000000000000000000000000081526004016101e890610479565b60405180910390fd5b50505050565b816000806101000a81548173ffffffffffffffffffffffffffffffffffffffff021916908373ffffffffffffffffffffffffffffffffffffffff16021790555060008054906101000a900473ffffffffffffffffffffffffffffffffffffffff1673ffffffffffffffffffffffffffffffffffffffff166323b872dd3330846040518463ffffffff1660e01b815260040161029493929190610427565b602060405180830381600087803b1580156102ae57600080fd5b505af11580156102c2573d6000803e3d6000fd5b505050506040513d601f19601f820116820180604052508101906102e69190610366565b505050565b6000813590506102fa816105ae565b92915050565b60008151905061030f816105c5565b92915050565b600081359050610324816105dc565b92915050565b6000806040838503121561033d57600080fd5b600061034b858286016102eb565b925050602061035c85828601610315565b9150509250929050565b60006020828403121561037857600080fd5b600061038684828501610300565b91505092915050565b610398816104c0565b82525050565b60006103a982610499565b6103b381856104a4565b93506103c381856020860161052c565b80840191505092915050565b6103d881610508565b82525050565b60006103eb6031836104af565b91506103f68261055f565b604082019050919050565b61040a816104fe565b82525050565b600061041c828461039e565b915081905092915050565b600060608201905061043c600083018661038f565b610449602083018561038f565b6104566040830184610401565b949350505050565b600060208201905061047360008301846103cf565b92915050565b60006020820190508181036000830152610492816103de565b9050919050565b600081519050919050565b600081905092915050565b600082825260208201905092915050565b60006104cb826104de565b9050919050565b60008115159050919050565b600073ffffffffffffffffffffffffffffffffffffffff82169050919050565b6000819050919050565b60006105138261051a565b9050919050565b6000610525826104de565b9050919050565b60005b8381101561054a57808201518184015260208101905061052f565b83811115610559576000848401525b50505050565b7f5472616e7366657248656c7065723a3a7472616e7366657246726f6d3a20747260008201527f616e7366657246726f6d206661696c6564000000000000000000000000000000602082015250565b6105b7816104c0565b81146105c257600080fd5b50565b6105ce816104d2565b81146105d957600080fd5b50565b6105e5816104fe565b81146105f057600080fd5b5056fea2646970667358221220def6776f4f20c992126b7aefe6f445d5558e64ddf7a46d22ef311f69b51b395864736f6c63430008040033",
  "immutableReferences": {},
  "source": "// SPDX-License-Identifier: MIT\npragma solidity ^0.8.0;\n\n// import \"@uniswap/lib/contract/libraries/TransferHelper.sol\";\nimport \"@openzeppelin/contracts/token/ERC20/ERC20.sol\";\n\ncontract SlowDex {\n    ERC20 public ERC20Interface;\n\n    function InitiateTransfer(address token, uint256 value) external {\n        //Token, from, to, value\n        // TransferHelper.safeTransferFrom(\n        //     token,\n        //     msg.sender,\n        //     address(this),\n        //     value\n        // );\n        (bool success, bytes memory data) =\n            token.call(\n                abi.encodeWithSelector(\n                    0x23b872dd,\n                    msg.sender,\n                    address(this),\n                    value\n                )\n            );\n        require(\n            success && (data.length == 0 || abi.decode(data, (bool))),\n            \"TransferHelper::transferFrom: transferFrom failed\"\n        );\n    }\n\n    function transferTokens(address token, uint256 amount_) public {\n        ERC20Interface = ERC20(token);\n        // uint256 allowance = token.allowance(msg.sender, address(this));\n        ERC20Interface.transferFrom(msg.sender, address(this), amount_);\n    }\n}\n",
  "sourcePath": "/Users/praffulsahu/Documents/Crypto/SlowDex/contracts/SlowDex.sol",
  "compiler": {
    "name": "solc",
    "version": "0.8.4+commit.c7e474f2.Emscripten.clang"
  },
  "schemaVersion": "3.3.3",
  "updatedAt": "2021-06-04T03:09:07.924Z",
  "networkType": "ethereum",
  "devdoc": {
    "kind": "dev",
    "methods": {},
    "version": 1
  },
  "userdoc": {
    "kind": "user",
    "methods": {},
    "version": 1
  }
}