{
  "contractName": "SlowDex",
  "abi": [
    {
      "anonymous": false,
      "inputs": [
        {
          "indexed": false,
          "internalType": "uint256",
          "name": "",
          "type": "uint256"
        },
        {
          "indexed": false,
          "internalType": "uint256",
          "name": "",
          "type": "uint256"
        }
      ],
      "name": "AmountDeposited",
      "type": "event"
    },
    {
      "anonymous": false,
      "inputs": [
        {
          "indexed": false,
          "internalType": "address",
          "name": "",
          "type": "address"
        },
        {
          "indexed": false,
          "internalType": "uint256",
          "name": "",
          "type": "uint256"
        },
        {
          "indexed": false,
          "internalType": "address",
          "name": "",
          "type": "address"
        },
        {
          "indexed": false,
          "internalType": "uint256",
          "name": "",
          "type": "uint256"
        }
      ],
      "name": "SuccessfulSwap",
      "type": "event"
    },
    {
      "inputs": [],
      "name": "ERC20Interface",
      "outputs": [
        {
          "internalType": "contract ERC20",
          "name": "",
          "type": "address"
        }
      ],
      "stateMutability": "view",
      "type": "function",
      "constant": true
    },
    {
      "inputs": [],
      "name": "loc1Token",
      "outputs": [
        {
          "internalType": "uint256",
          "name": "",
          "type": "uint256"
        }
      ],
      "stateMutability": "view",
      "type": "function",
      "constant": true
    },
    {
      "inputs": [],
      "name": "loc2Token",
      "outputs": [
        {
          "internalType": "uint256",
          "name": "",
          "type": "uint256"
        }
      ],
      "stateMutability": "view",
      "type": "function",
      "constant": true
    },
    {
      "inputs": [],
      "name": "theconstant",
      "outputs": [
        {
          "internalType": "uint256",
          "name": "",
          "type": "uint256"
        }
      ],
      "stateMutability": "view",
      "type": "function",
      "constant": true
    },
    {
      "inputs": [
        {
          "internalType": "address",
          "name": "token1_",
          "type": "address"
        },
        {
          "internalType": "address",
          "name": "token2_",
          "type": "address"
        },
        {
          "internalType": "uint256",
          "name": "amount1_",
          "type": "uint256"
        },
        {
          "internalType": "uint256",
          "name": "amount2_",
          "type": "uint256"
        }
      ],
      "name": "DepositTokens",
      "outputs": [],
      "stateMutability": "nonpayable",
      "type": "function"
    },
    {
      "inputs": [],
      "name": "ReturnBalances",
      "outputs": [
        {
          "internalType": "uint256",
          "name": "",
          "type": "uint256"
        },
        {
          "internalType": "uint256",
          "name": "",
          "type": "uint256"
        }
      ],
      "stateMutability": "nonpayable",
      "type": "function"
    },
    {
      "inputs": [
        {
          "internalType": "address",
          "name": "token1",
          "type": "address"
        },
        {
          "internalType": "address",
          "name": "token2",
          "type": "address"
        },
        {
          "internalType": "uint256",
          "name": "amount1",
          "type": "uint256"
        },
        {
          "internalType": "uint256",
          "name": "amount2",
          "type": "uint256"
        }
      ],
      "name": "swapToken",
      "outputs": [],
      "stateMutability": "nonpayable",
      "type": "function"
    },
    {
      "inputs": [
        {
          "internalType": "address",
          "name": "sl",
          "type": "address"
        }
      ],
      "name": "SetSlw",
      "outputs": [],
      "stateMutability": "nonpayable",
      "type": "function"
    }
  ],
  "bytecode": "0x608060405234801561001057600080fd5b50610ba0806100206000396000f3fe608060405234801561001057600080fd5b50600436106100885760003560e01c806331c80d501161005b57806331c80d501461010357806337476ced14610122578063792bd4281461013e5780638841221b1461015a57610088565b80630358dde11461008d57806307d209d2146100a957806318c8785f146100c75780631bbc4b83146100e5575b600080fd5b6100a760048036038101906100a2919061076e565b610178565b005b6100b16101bc565b6040516100be9190610962565b60405180910390f35b6100cf6101c2565b6040516100dc9190610962565b60405180910390f35b6100ed6101c8565b6040516100fa9190610947565b60405180910390f35b61010b6101ec565b60405161011992919061097d565b60405180910390f35b61013c60048036038101906101379190610797565b6101fd565b005b61015860048036038101906101539190610797565b610433565b005b610162610714565b60405161016f9190610962565b60405180910390f35b80600460006101000a81548173ffffffffffffffffffffffffffffffffffffffff021916908373ffffffffffffffffffffffffffffffffffffffff16021790555050565b60015481565b60035481565b60008054906101000a900473ffffffffffffffffffffffffffffffffffffffff1681565b600080600154600254915091509091565b60008490506000849050838273ffffffffffffffffffffffffffffffffffffffff1663dd62ed3e33306040518363ffffffff1660e01b8152600401610243929190610879565b60206040518083038186803b15801561025b57600080fd5b505afa15801561026f573d6000803e3d6000fd5b505050506040513d601f19601f820116820180604052508101906102939190610823565b101561029e57600080fd5b8173ffffffffffffffffffffffffffffffffffffffff166323b872dd3330876040518463ffffffff1660e01b81526004016102db939291906108a2565b602060405180830381600087803b1580156102f557600080fd5b505af1158015610309573d6000803e3d6000fd5b505050506040513d601f19601f8201168201806040525081019061032d91906107fa565b508073ffffffffffffffffffffffffffffffffffffffff1663a9059cbb33856040518363ffffffff1660e01b81526004016103699291906108d9565b602060405180830381600087803b15801561038357600080fd5b505af1158015610397573d6000803e3d6000fd5b505050506040513d601f19601f820116820180604052508101906103bb91906107fa565b5083600160008282546103ce91906109a6565b9250508190555082600260008282546103e79190610a56565b925050819055507f1791d7d669bf34a0f64c4ef7a20de22b49f0b329a5a2c3442797c6bf6b2dc407868587866040516104239493929190610902565b60405180910390a1505050505050565b60008490506000849050838273ffffffffffffffffffffffffffffffffffffffff1663dd62ed3e33306040518363ffffffff1660e01b8152600401610479929190610879565b60206040518083038186803b15801561049157600080fd5b505afa1580156104a5573d6000803e3d6000fd5b505050506040513d601f19601f820116820180604052508101906104c99190610823565b10156104d457600080fd5b828173ffffffffffffffffffffffffffffffffffffffff1663dd62ed3e33306040518363ffffffff1660e01b8152600401610510929190610879565b60206040518083038186803b15801561052857600080fd5b505afa15801561053c573d6000803e3d6000fd5b505050506040513d601f19601f820116820180604052508101906105609190610823565b101561056b57600080fd5b8173ffffffffffffffffffffffffffffffffffffffff166323b872dd3330876040518463ffffffff1660e01b81526004016105a8939291906108a2565b602060405180830381600087803b1580156105c257600080fd5b505af11580156105d6573d6000803e3d6000fd5b505050506040513d601f19601f820116820180604052508101906105fa91906107fa565b508073ffffffffffffffffffffffffffffffffffffffff166323b872dd3330866040518463ffffffff1660e01b8152600401610638939291906108a2565b602060405180830381600087803b15801561065257600080fd5b505af1158015610666573d6000803e3d6000fd5b505050506040513d601f19601f8201168201806040525081019061068a91906107fa565b50836001600082825461069d91906109a6565b9250508190555082600260008282546106b691906109a6565b925050819055506002546001546106cd91906109fc565b6003819055507fff1cd8b4b2d7eb91e1865ab62aeade09b1e481e6f69c302aabe310523d13250e848460405161070492919061097d565b60405180910390a1505050505050565b60025481565b60008135905061072981610b25565b92915050565b60008151905061073e81610b3c565b92915050565b60008135905061075381610b53565b92915050565b60008151905061076881610b53565b92915050565b60006020828403121561078057600080fd5b600061078e8482850161071a565b91505092915050565b600080600080608085870312156107ad57600080fd5b60006107bb8782880161071a565b94505060206107cc8782880161071a565b93505060406107dd87828801610744565b92505060606107ee87828801610744565b91505092959194509250565b60006020828403121561080c57600080fd5b600061081a8482850161072f565b91505092915050565b60006020828403121561083557600080fd5b600061084384828501610759565b91505092915050565b61085581610a8a565b82525050565b61086481610ad2565b82525050565b61087381610ac8565b82525050565b600060408201905061088e600083018561084c565b61089b602083018461084c565b9392505050565b60006060820190506108b7600083018661084c565b6108c4602083018561084c565b6108d1604083018461086a565b949350505050565b60006040820190506108ee600083018561084c565b6108fb602083018461086a565b9392505050565b6000608082019050610917600083018761084c565b610924602083018661086a565b610931604083018561084c565b61093e606083018461086a565b95945050505050565b600060208201905061095c600083018461085b565b92915050565b6000602082019050610977600083018461086a565b92915050565b6000604082019050610992600083018561086a565b61099f602083018461086a565b9392505050565b60006109b182610ac8565b91506109bc83610ac8565b9250827fffffffffffffffffffffffffffffffffffffffffffffffffffffffffffffffff038211156109f1576109f0610af6565b5b828201905092915050565b6000610a0782610ac8565b9150610a1283610ac8565b9250817fffffffffffffffffffffffffffffffffffffffffffffffffffffffffffffffff0483118215151615610a4b57610a4a610af6565b5b828202905092915050565b6000610a6182610ac8565b9150610a6c83610ac8565b925082821015610a7f57610a7e610af6565b5b828203905092915050565b6000610a9582610aa8565b9050919050565b60008115159050919050565b600073ffffffffffffffffffffffffffffffffffffffff82169050919050565b6000819050919050565b6000610add82610ae4565b9050919050565b6000610aef82610aa8565b9050919050565b7f4e487b7100000000000000000000000000000000000000000000000000000000600052601160045260246000fd5b610b2e81610a8a565b8114610b3957600080fd5b50565b610b4581610a9c565b8114610b5057600080fd5b50565b610b5c81610ac8565b8114610b6757600080fd5b5056fea2646970667358221220a2dc9d9342142a819bdfcecbed0bc8a0d05d4fd325e62b2edf9cb506cc4523be64736f6c63430008040033",
  "immutableReferences": {},
  "source": "// SPDX-License-Identifier: MIT\n\npragma solidity ^0.8.0;\n// import \"@uniswap/lib/contract/libraries/TransferHelper.sol\";\nimport \"@openzeppelin/contracts/token/ERC20/ERC20.sol\";\n\ncontract SlowDex {\n    ERC20 public ERC20Interface;\n    uint256 public loc1Token;\n    uint256 public loc2Token;\n    uint256 public theconstant;\n    address slw;\n\n    event SuccessfulSwap(address, uint256, address, uint256);\n    event AmountDeposited(uint256, uint256);\n\n    function DepositTokens(\n        address token1_,\n        address token2_,\n        uint256 amount1_,\n        uint256 amount2_\n    ) public {\n        ERC20 token1 = ERC20(token1_);\n        ERC20 token2 = ERC20(token2_);\n        require(token1.allowance(msg.sender, address(this)) >= amount1_);\n        require(token2.allowance(msg.sender, address(this)) >= amount2_);\n        token1.transferFrom(msg.sender, address(this), amount1_);\n        token2.transferFrom(msg.sender, address(this), amount2_);\n        //Add the toke amounts\n        loc1Token += amount1_;\n        loc2Token += amount2_;\n        theconstant = loc1Token * loc2Token;\n        emit AmountDeposited(amount1_, amount2_);\n    }\n\n    function ReturnBalances() public returns (uint256, uint256) {\n        return (loc1Token, loc2Token);\n    }\n\n    function swapToken(\n        address token1,\n        address token2,\n        uint256 amount1,\n        uint256 amount2\n    ) public {\n        ERC20 _token1 = ERC20(token1);\n        ERC20 _token2 = ERC20(token2);\n        require(_token1.allowance(msg.sender, address(this)) >= amount1);\n        _token1.transferFrom(msg.sender, address(this), amount1);\n        _token2.transfer(msg.sender, amount2);\n        loc1Token += amount1;\n        loc2Token -= amount2;\n        emit SuccessfulSwap(token1, amount1, token2, amount2);\n    }\n\n    function SetSlw(address sl) public {\n        slw = sl;\n    }\n}\n",
  "sourcePath": "/Users/praffulsahu/Documents/Crypto/SlowDex/contracts/SlowDex.sol",
  "compiler": {
    "name": "solc",
    "version": "0.8.4+commit.c7e474f2.Emscripten.clang"
  },
  "schemaVersion": "3.3.3",
  "updatedAt": "2021-06-06T10:31:51.863Z",
  "networkType": "ethereum",
  "devdoc": {
    "kind": "dev",
    "methods": {},
    "version": 1
  },
  "userdoc": {
    "kind": "user",
    "methods": {},
    "version": 1
  }
}