{
  "contractName": "SlowDex",
  "abi": [
    {
      "anonymous": false,
      "inputs": [
        {
          "indexed": false,
          "internalType": "uint256",
          "name": "",
          "type": "uint256"
        },
        {
          "indexed": false,
          "internalType": "uint256",
          "name": "",
          "type": "uint256"
        }
      ],
      "name": "AmountDeposited",
      "type": "event"
    },
    {
      "anonymous": false,
      "inputs": [
        {
          "indexed": false,
          "internalType": "address",
          "name": "",
          "type": "address"
        },
        {
          "indexed": false,
          "internalType": "uint256",
          "name": "",
          "type": "uint256"
        },
        {
          "indexed": false,
          "internalType": "address",
          "name": "",
          "type": "address"
        },
        {
          "indexed": false,
          "internalType": "uint256",
          "name": "",
          "type": "uint256"
        }
      ],
      "name": "SuccessfulSwap",
      "type": "event"
    },
    {
      "inputs": [],
      "name": "ERC20Interface",
      "outputs": [
        {
          "internalType": "contract ERC20",
          "name": "",
          "type": "address"
        }
      ],
      "stateMutability": "view",
      "type": "function",
      "constant": true
    },
    {
      "inputs": [],
      "name": "loc1Token",
      "outputs": [
        {
          "internalType": "uint256",
          "name": "",
          "type": "uint256"
        }
      ],
      "stateMutability": "view",
      "type": "function",
      "constant": true
    },
    {
      "inputs": [],
      "name": "loc2Token",
      "outputs": [
        {
          "internalType": "uint256",
          "name": "",
          "type": "uint256"
        }
      ],
      "stateMutability": "view",
      "type": "function",
      "constant": true
    },
    {
      "inputs": [],
      "name": "theconstant",
      "outputs": [
        {
          "internalType": "uint256",
          "name": "",
          "type": "uint256"
        }
      ],
      "stateMutability": "view",
      "type": "function",
      "constant": true
    },
    {
      "inputs": [
        {
          "internalType": "address",
          "name": "token1_",
          "type": "address"
        },
        {
          "internalType": "address",
          "name": "token2_",
          "type": "address"
        },
        {
          "internalType": "uint256",
          "name": "amount1_",
          "type": "uint256"
        },
        {
          "internalType": "uint256",
          "name": "amount2_",
          "type": "uint256"
        }
      ],
      "name": "DepositTokens",
      "outputs": [],
      "stateMutability": "nonpayable",
      "type": "function"
    },
    {
      "inputs": [],
      "name": "ReturnBalances",
      "outputs": [
        {
          "internalType": "uint256",
          "name": "",
          "type": "uint256"
        },
        {
          "internalType": "uint256",
          "name": "",
          "type": "uint256"
        }
      ],
      "stateMutability": "nonpayable",
      "type": "function"
    },
    {
      "inputs": [
        {
          "internalType": "address",
          "name": "token1",
          "type": "address"
        },
        {
          "internalType": "address",
          "name": "token2",
          "type": "address"
        },
        {
          "internalType": "uint256",
          "name": "amount1",
          "type": "uint256"
        },
        {
          "internalType": "uint256",
          "name": "amount2",
          "type": "uint256"
        }
      ],
      "name": "swapToken",
      "outputs": [],
      "stateMutability": "nonpayable",
      "type": "function"
    }
  ],
  "bytecode": "0x608060405234801561001057600080fd5b50610b0c806100206000396000f3fe608060405234801561001057600080fd5b506004361061007d5760003560e01c806331c80d501161005b57806331c80d50146100dc57806337476ced146100fb578063792bd428146101175780638841221b146101335761007d565b806307d209d21461008257806318c8785f146100a05780631bbc4b83146100be575b600080fd5b61008a610151565b60405161009791906108ce565b60405180910390f35b6100a8610157565b6040516100b591906108ce565b60405180910390f35b6100c661015d565b6040516100d391906108b3565b60405180910390f35b6100e4610181565b6040516100f29291906108e9565b60405180910390f35b61011560048036038101906101109190610703565b610192565b005b610131600480360381019061012c9190610703565b6103c8565b005b61013b6106a9565b60405161014891906108ce565b60405180910390f35b60015481565b60035481565b60008054906101000a900473ffffffffffffffffffffffffffffffffffffffff1681565b600080600154600254915091509091565b60008490506000849050838273ffffffffffffffffffffffffffffffffffffffff1663dd62ed3e33306040518363ffffffff1660e01b81526004016101d89291906107e5565b60206040518083038186803b1580156101f057600080fd5b505afa158015610204573d6000803e3d6000fd5b505050506040513d601f19601f82011682018060405250810190610228919061078f565b101561023357600080fd5b8173ffffffffffffffffffffffffffffffffffffffff166323b872dd3330876040518463ffffffff1660e01b81526004016102709392919061080e565b602060405180830381600087803b15801561028a57600080fd5b505af115801561029e573d6000803e3d6000fd5b505050506040513d601f19601f820116820180604052508101906102c29190610766565b508073ffffffffffffffffffffffffffffffffffffffff1663a9059cbb33856040518363ffffffff1660e01b81526004016102fe929190610845565b602060405180830381600087803b15801561031857600080fd5b505af115801561032c573d6000803e3d6000fd5b505050506040513d601f19601f820116820180604052508101906103509190610766565b5083600160008282546103639190610912565b92505081905550826002600082825461037c91906109c2565b925050819055507f1791d7d669bf34a0f64c4ef7a20de22b49f0b329a5a2c3442797c6bf6b2dc407868587866040516103b8949392919061086e565b60405180910390a1505050505050565b60008490506000849050838273ffffffffffffffffffffffffffffffffffffffff1663dd62ed3e33306040518363ffffffff1660e01b815260040161040e9291906107e5565b60206040518083038186803b15801561042657600080fd5b505afa15801561043a573d6000803e3d6000fd5b505050506040513d601f19601f8201168201806040525081019061045e919061078f565b101561046957600080fd5b828173ffffffffffffffffffffffffffffffffffffffff1663dd62ed3e33306040518363ffffffff1660e01b81526004016104a59291906107e5565b60206040518083038186803b1580156104bd57600080fd5b505afa1580156104d1573d6000803e3d6000fd5b505050506040513d601f19601f820116820180604052508101906104f5919061078f565b101561050057600080fd5b8173ffffffffffffffffffffffffffffffffffffffff166323b872dd3330876040518463ffffffff1660e01b815260040161053d9392919061080e565b602060405180830381600087803b15801561055757600080fd5b505af115801561056b573d6000803e3d6000fd5b505050506040513d601f19601f8201168201806040525081019061058f9190610766565b508073ffffffffffffffffffffffffffffffffffffffff166323b872dd3330866040518463ffffffff1660e01b81526004016105cd9392919061080e565b602060405180830381600087803b1580156105e757600080fd5b505af11580156105fb573d6000803e3d6000fd5b505050506040513d601f19601f8201168201806040525081019061061f9190610766565b5083600160008282546106329190610912565b92505081905550826002600082825461064b9190610912565b925050819055506002546001546106629190610968565b6003819055507fff1cd8b4b2d7eb91e1865ab62aeade09b1e481e6f69c302aabe310523d13250e84846040516106999291906108e9565b60405180910390a1505050505050565b60025481565b6000813590506106be81610a91565b92915050565b6000815190506106d381610aa8565b92915050565b6000813590506106e881610abf565b92915050565b6000815190506106fd81610abf565b92915050565b6000806000806080858703121561071957600080fd5b6000610727878288016106af565b9450506020610738878288016106af565b9350506040610749878288016106d9565b925050606061075a878288016106d9565b91505092959194509250565b60006020828403121561077857600080fd5b6000610786848285016106c4565b91505092915050565b6000602082840312156107a157600080fd5b60006107af848285016106ee565b91505092915050565b6107c1816109f6565b82525050565b6107d081610a3e565b82525050565b6107df81610a34565b82525050565b60006040820190506107fa60008301856107b8565b61080760208301846107b8565b9392505050565b600060608201905061082360008301866107b8565b61083060208301856107b8565b61083d60408301846107d6565b949350505050565b600060408201905061085a60008301856107b8565b61086760208301846107d6565b9392505050565b600060808201905061088360008301876107b8565b61089060208301866107d6565b61089d60408301856107b8565b6108aa60608301846107d6565b95945050505050565b60006020820190506108c860008301846107c7565b92915050565b60006020820190506108e360008301846107d6565b92915050565b60006040820190506108fe60008301856107d6565b61090b60208301846107d6565b9392505050565b600061091d82610a34565b915061092883610a34565b9250827fffffffffffffffffffffffffffffffffffffffffffffffffffffffffffffffff0382111561095d5761095c610a62565b5b828201905092915050565b600061097382610a34565b915061097e83610a34565b9250817fffffffffffffffffffffffffffffffffffffffffffffffffffffffffffffffff04831182151516156109b7576109b6610a62565b5b828202905092915050565b60006109cd82610a34565b91506109d883610a34565b9250828210156109eb576109ea610a62565b5b828203905092915050565b6000610a0182610a14565b9050919050565b60008115159050919050565b600073ffffffffffffffffffffffffffffffffffffffff82169050919050565b6000819050919050565b6000610a4982610a50565b9050919050565b6000610a5b82610a14565b9050919050565b7f4e487b7100000000000000000000000000000000000000000000000000000000600052601160045260246000fd5b610a9a816109f6565b8114610aa557600080fd5b50565b610ab181610a08565b8114610abc57600080fd5b50565b610ac881610a34565b8114610ad357600080fd5b5056fea264697066735822122057d5c61d5853883b8d724bcf5f7ab4b4754b4442978fcf367c9a74cde6e8c45c64736f6c63430008040033",
  "immutableReferences": {},
  "source": "// SPDX-License-Identifier: MIT\n\npragma solidity ^0.8.0;\n// import \"@uniswap/lib/contract/libraries/TransferHelper.sol\";\nimport \"@openzeppelin/contracts/token/ERC20/ERC20.sol\";\n\ncontract SlowDex {\n    ERC20 public ERC20Interface;\n    uint256 public loc1Token;\n    uint256 public loc2Token;\n    uint256 public theconstant;\n\n    event SuccessfulSwap(address, uint256, address, uint256);\n    event AmountDeposited(uint256, uint256);\n\n    function DepositTokens(\n        address token1_,\n        address token2_,\n        uint256 amount1_,\n        uint256 amount2_\n    ) public {\n        ERC20 token1 = ERC20(token1_);\n        ERC20 token2 = ERC20(token2_);\n        require(token1.allowance(msg.sender, address(this)) >= amount1_);\n        require(token2.allowance(msg.sender, address(this)) >= amount2_);\n        token1.transferFrom(msg.sender, address(this), amount1_);\n        token2.transferFrom(msg.sender, address(this), amount2_);\n        //Add the toke amounts\n        loc1Token += amount1_;\n        loc2Token += amount2_;\n        theconstant = loc1Token * loc2Token;\n        emit AmountDeposited(amount1_, amount2_);\n    }\n\n    function ReturnBalances() public returns (uint256, uint256) {\n        return (loc1Token, loc2Token);\n    }\n\n    function swapToken(\n        address token1,\n        address token2,\n        uint256 amount1,\n        uint256 amount2\n    ) public {\n        ERC20 _token1 = ERC20(token1);\n        ERC20 _token2 = ERC20(token2);\n        require(_token1.allowance(msg.sender, address(this)) >= amount1);\n        _token1.transferFrom(msg.sender, address(this), amount1);\n        _token2.transfer(msg.sender, amount2);\n        loc1Token += amount1;\n        loc2Token -= amount2;\n        emit SuccessfulSwap(token1, amount1, token2, amount2);\n    }\n}\n",
  "sourcePath": "/Users/praffulsahu/Documents/Crypto/SlowDex/contracts/SlowDex.sol",
  "compiler": {
    "name": "solc",
    "version": "0.8.4+commit.c7e474f2.Emscripten.clang"
  },
  "schemaVersion": "3.3.3",
  "updatedAt": "2021-06-04T13:59:34.265Z",
  "networkType": "ethereum",
  "devdoc": {
    "kind": "dev",
    "methods": {},
    "version": 1
  },
  "userdoc": {
    "kind": "user",
    "methods": {},
    "version": 1
  }
}